{
  "address": "0x52dE6508FECCA4d712b75b0bD018a621EaF2d734",
  "abi": [
    {
      "inputs": [],
      "stateMutability": "nonpayable",
      "type": "constructor"
    },
    {
      "inputs": [
        {
          "internalType": "address",
          "name": "sender",
          "type": "address"
        },
        {
          "internalType": "uint256",
          "name": "tokenId",
          "type": "uint256"
        },
        {
          "internalType": "address",
          "name": "owner",
          "type": "address"
        }
      ],
      "name": "ERC721IncorrectOwner",
      "type": "error"
    },
    {
      "inputs": [
        {
          "internalType": "address",
          "name": "operator",
          "type": "address"
        },
        {
          "internalType": "uint256",
          "name": "tokenId",
          "type": "uint256"
        }
      ],
      "name": "ERC721InsufficientApproval",
      "type": "error"
    },
    {
      "inputs": [
        {
          "internalType": "address",
          "name": "approver",
          "type": "address"
        }
      ],
      "name": "ERC721InvalidApprover",
      "type": "error"
    },
    {
      "inputs": [
        {
          "internalType": "address",
          "name": "operator",
          "type": "address"
        }
      ],
      "name": "ERC721InvalidOperator",
      "type": "error"
    },
    {
      "inputs": [
        {
          "internalType": "address",
          "name": "owner",
          "type": "address"
        }
      ],
      "name": "ERC721InvalidOwner",
      "type": "error"
    },
    {
      "inputs": [
        {
          "internalType": "address",
          "name": "receiver",
          "type": "address"
        }
      ],
      "name": "ERC721InvalidReceiver",
      "type": "error"
    },
    {
      "inputs": [
        {
          "internalType": "address",
          "name": "sender",
          "type": "address"
        }
      ],
      "name": "ERC721InvalidSender",
      "type": "error"
    },
    {
      "inputs": [
        {
          "internalType": "uint256",
          "name": "tokenId",
          "type": "uint256"
        }
      ],
      "name": "ERC721NonexistentToken",
      "type": "error"
    },
    {
      "inputs": [
        {
          "internalType": "address",
          "name": "owner",
          "type": "address"
        }
      ],
      "name": "OwnableInvalidOwner",
      "type": "error"
    },
    {
      "inputs": [
        {
          "internalType": "address",
          "name": "account",
          "type": "address"
        }
      ],
      "name": "OwnableUnauthorizedAccount",
      "type": "error"
    },
    {
      "anonymous": false,
      "inputs": [
        {
          "indexed": true,
          "internalType": "address",
          "name": "owner",
          "type": "address"
        },
        {
          "indexed": true,
          "internalType": "address",
          "name": "approved",
          "type": "address"
        },
        {
          "indexed": true,
          "internalType": "uint256",
          "name": "tokenId",
          "type": "uint256"
        }
      ],
      "name": "Approval",
      "type": "event"
    },
    {
      "anonymous": false,
      "inputs": [
        {
          "indexed": true,
          "internalType": "address",
          "name": "owner",
          "type": "address"
        },
        {
          "indexed": true,
          "internalType": "address",
          "name": "operator",
          "type": "address"
        },
        {
          "indexed": false,
          "internalType": "bool",
          "name": "approved",
          "type": "bool"
        }
      ],
      "name": "ApprovalForAll",
      "type": "event"
    },
    {
      "anonymous": false,
      "inputs": [
        {
          "indexed": false,
          "internalType": "uint256",
          "name": "_fromTokenId",
          "type": "uint256"
        },
        {
          "indexed": false,
          "internalType": "uint256",
          "name": "_toTokenId",
          "type": "uint256"
        }
      ],
      "name": "BatchMetadataUpdate",
      "type": "event"
    },
    {
      "anonymous": false,
      "inputs": [
        {
          "indexed": true,
          "internalType": "address",
          "name": "user",
          "type": "address"
        },
        {
          "indexed": false,
          "internalType": "uint256",
          "name": "tokenId",
          "type": "uint256"
        }
      ],
      "name": "DailyChallengeNFTMinted",
      "type": "event"
    },
    {
      "anonymous": false,
      "inputs": [
        {
          "indexed": false,
          "internalType": "uint256",
          "name": "_tokenId",
          "type": "uint256"
        }
      ],
      "name": "MetadataUpdate",
      "type": "event"
    },
    {
      "anonymous": false,
      "inputs": [
        {
          "indexed": true,
          "internalType": "address",
          "name": "user",
          "type": "address"
        },
        {
          "indexed": false,
          "internalType": "uint256",
          "name": "tokenId",
          "type": "uint256"
        }
      ],
      "name": "NFTMinted",
      "type": "event"
    },
    {
      "anonymous": false,
      "inputs": [
        {
          "indexed": true,
          "internalType": "address",
          "name": "previousOwner",
          "type": "address"
        },
        {
          "indexed": true,
          "internalType": "address",
          "name": "newOwner",
          "type": "address"
        }
      ],
      "name": "OwnershipTransferred",
      "type": "event"
    },
    {
      "anonymous": false,
      "inputs": [
        {
          "indexed": true,
          "internalType": "address",
          "name": "user",
          "type": "address"
        },
        {
          "indexed": false,
          "internalType": "uint256",
          "name": "amount",
          "type": "uint256"
        }
      ],
      "name": "StakeForfeit",
      "type": "event"
    },
    {
      "anonymous": false,
      "inputs": [
        {
          "indexed": true,
          "internalType": "address",
          "name": "user",
          "type": "address"
        },
        {
          "indexed": false,
          "internalType": "uint256",
          "name": "amount",
          "type": "uint256"
        }
      ],
      "name": "Staked",
      "type": "event"
    },
    {
      "anonymous": false,
      "inputs": [
        {
          "indexed": true,
          "internalType": "address",
          "name": "user",
          "type": "address"
        },
        {
          "indexed": false,
          "internalType": "uint256",
          "name": "stepCount",
          "type": "uint256"
        }
      ],
      "name": "StepsCounted",
      "type": "event"
    },
    {
      "anonymous": false,
      "inputs": [
        {
          "indexed": true,
          "internalType": "address",
          "name": "from",
          "type": "address"
        },
        {
          "indexed": true,
          "internalType": "address",
          "name": "to",
          "type": "address"
        },
        {
          "indexed": true,
          "internalType": "uint256",
          "name": "tokenId",
          "type": "uint256"
        }
      ],
      "name": "Transfer",
      "type": "event"
    },
    {
      "inputs": [],
      "name": "DAILY_STEP_GOAL",
      "outputs": [
        {
          "internalType": "uint256",
          "name": "",
          "type": "uint256"
        }
      ],
      "stateMutability": "view",
      "type": "function"
    },
    {
      "inputs": [],
      "name": "STAKE_PERIOD",
      "outputs": [
        {
          "internalType": "uint256",
          "name": "",
          "type": "uint256"
        }
      ],
      "stateMutability": "view",
      "type": "function"
    },
    {
      "inputs": [
        {
          "internalType": "address",
          "name": "to",
          "type": "address"
        },
        {
          "internalType": "uint256",
          "name": "tokenId",
          "type": "uint256"
        }
      ],
      "name": "approve",
      "outputs": [],
      "stateMutability": "nonpayable",
      "type": "function"
    },
    {
      "inputs": [
        {
          "internalType": "address",
          "name": "owner",
          "type": "address"
        }
      ],
      "name": "balanceOf",
      "outputs": [
        {
          "internalType": "uint256",
          "name": "",
          "type": "uint256"
        }
      ],
      "stateMutability": "view",
      "type": "function"
    },
    {
      "inputs": [
        {
          "internalType": "address",
          "name": "wallet",
          "type": "address"
        },
        {
          "internalType": "string",
          "name": "imageUrl",
          "type": "string"
        }
      ],
      "name": "claimStakeAndMintNFT",
      "outputs": [],
      "stateMutability": "nonpayable",
      "type": "function"
    },
    {
      "inputs": [
        {
          "internalType": "uint256",
          "name": "tokenId",
          "type": "uint256"
        }
      ],
      "name": "getApproved",
      "outputs": [
        {
          "internalType": "address",
          "name": "",
          "type": "address"
        }
      ],
      "stateMutability": "view",
      "type": "function"
    },
    {
      "inputs": [
        {
          "internalType": "address",
          "name": "owner",
          "type": "address"
        },
        {
          "internalType": "address",
          "name": "operator",
          "type": "address"
        }
      ],
      "name": "isApprovedForAll",
      "outputs": [
        {
          "internalType": "bool",
          "name": "",
          "type": "bool"
        }
      ],
      "stateMutability": "view",
      "type": "function"
    },
    {
      "inputs": [
        {
          "internalType": "address",
          "name": "user",
          "type": "address"
        },
        {
          "internalType": "string",
          "name": "challengeType",
          "type": "string"
        },
        {
          "internalType": "string",
          "name": "description",
          "type": "string"
        },
        {
          "internalType": "string",
          "name": "quirkyMessage",
          "type": "string"
        },
        {
          "internalType": "string",
          "name": "imageUrl",
          "type": "string"
        }
      ],
      "name": "mintDailyChallengeNFT",
      "outputs": [],
      "stateMutability": "nonpayable",
      "type": "function"
    },
    {
      "inputs": [],
      "name": "name",
      "outputs": [
        {
          "internalType": "string",
          "name": "",
          "type": "string"
        }
      ],
      "stateMutability": "view",
      "type": "function"
    },
    {
      "inputs": [],
      "name": "owner",
      "outputs": [
        {
          "internalType": "address",
          "name": "",
          "type": "address"
        }
      ],
      "stateMutability": "view",
      "type": "function"
    },
    {
      "inputs": [
        {
          "internalType": "uint256",
          "name": "tokenId",
          "type": "uint256"
        }
      ],
      "name": "ownerOf",
      "outputs": [
        {
          "internalType": "address",
          "name": "",
          "type": "address"
        }
      ],
      "stateMutability": "view",
      "type": "function"
    },
    {
      "inputs": [],
      "name": "renounceOwnership",
      "outputs": [],
      "stateMutability": "nonpayable",
      "type": "function"
    },
    {
      "inputs": [
        {
          "internalType": "address",
          "name": "from",
          "type": "address"
        },
        {
          "internalType": "address",
          "name": "to",
          "type": "address"
        },
        {
          "internalType": "uint256",
          "name": "tokenId",
          "type": "uint256"
        }
      ],
      "name": "safeTransferFrom",
      "outputs": [],
      "stateMutability": "nonpayable",
      "type": "function"
    },
    {
      "inputs": [
        {
          "internalType": "address",
          "name": "from",
          "type": "address"
        },
        {
          "internalType": "address",
          "name": "to",
          "type": "address"
        },
        {
          "internalType": "uint256",
          "name": "tokenId",
          "type": "uint256"
        },
        {
          "internalType": "bytes",
          "name": "data",
          "type": "bytes"
        }
      ],
      "name": "safeTransferFrom",
      "outputs": [],
      "stateMutability": "nonpayable",
      "type": "function"
    },
    {
      "inputs": [
        {
          "internalType": "address",
          "name": "operator",
          "type": "address"
        },
        {
          "internalType": "bool",
          "name": "approved",
          "type": "bool"
        }
      ],
      "name": "setApprovalForAll",
      "outputs": [],
      "stateMutability": "nonpayable",
      "type": "function"
    },
    {
      "inputs": [],
      "name": "stake",
      "outputs": [],
      "stateMutability": "payable",
      "type": "function"
    },
    {
      "inputs": [
        {
          "internalType": "bytes4",
          "name": "interfaceId",
          "type": "bytes4"
        }
      ],
      "name": "supportsInterface",
      "outputs": [
        {
          "internalType": "bool",
          "name": "",
          "type": "bool"
        }
      ],
      "stateMutability": "view",
      "type": "function"
    },
    {
      "inputs": [],
      "name": "symbol",
      "outputs": [
        {
          "internalType": "string",
          "name": "",
          "type": "string"
        }
      ],
      "stateMutability": "view",
      "type": "function"
    },
    {
      "inputs": [
        {
          "internalType": "uint256",
          "name": "tokenId",
          "type": "uint256"
        }
      ],
      "name": "tokenURI",
      "outputs": [
        {
          "internalType": "string",
          "name": "",
          "type": "string"
        }
      ],
      "stateMutability": "view",
      "type": "function"
    },
    {
      "inputs": [
        {
          "internalType": "address",
          "name": "from",
          "type": "address"
        },
        {
          "internalType": "address",
          "name": "to",
          "type": "address"
        },
        {
          "internalType": "uint256",
          "name": "tokenId",
          "type": "uint256"
        }
      ],
      "name": "transferFrom",
      "outputs": [],
      "stateMutability": "nonpayable",
      "type": "function"
    },
    {
      "inputs": [
        {
          "internalType": "address",
          "name": "newOwner",
          "type": "address"
        }
      ],
      "name": "transferOwnership",
      "outputs": [],
      "stateMutability": "nonpayable",
      "type": "function"
    },
    {
      "inputs": [
        {
          "internalType": "address",
          "name": "wallet",
          "type": "address"
        },
        {
          "internalType": "uint256",
          "name": "stepCount",
          "type": "uint256"
        }
      ],
      "name": "updateDailySteps",
      "outputs": [],
      "stateMutability": "nonpayable",
      "type": "function"
    },
    {
      "inputs": [
        {
          "internalType": "address",
          "name": "",
          "type": "address"
        }
      ],
      "name": "userStakes",
      "outputs": [
        {
          "internalType": "uint256",
          "name": "amount",
          "type": "uint256"
        },
        {
          "internalType": "uint256",
          "name": "stakeTimestamp",
          "type": "uint256"
        },
        {
          "internalType": "uint256",
          "name": "stepCount",
          "type": "uint256"
        },
        {
          "internalType": "bool",
          "name": "claimed",
          "type": "bool"
        }
      ],
      "stateMutability": "view",
      "type": "function"
    },
    {
      "inputs": [],
      "name": "withdraw",
      "outputs": [],
      "stateMutability": "nonpayable",
      "type": "function"
    },
    {
      "stateMutability": "payable",
      "type": "receive"
    }
  ],
  "transactionHash": "0xc4871872d6e9865065a2803492de9559029af1095220e61315de052e0ad6cf7b",
  "args": [],
  "numDeployments": 1,
  "solcInputHash": "0554c28b80095f2a4521c9d957750b57",
  "bytecode": "0x60806040523480156200001157600080fd5b5033604051806040016040528060128152602001714461696c79537465704368616c6c656e676560701b8152506040518060400160405280600781526020016614d5115413919560ca1b81525081600090816200006f9190620001be565b5060016200007e8282620001be565b5050506001600160a01b038116620000b057604051631e4fbdf760e01b81526000600482015260240160405180910390fd5b620000bb81620000c7565b5060016009556200028a565b600780546001600160a01b038381166001600160a01b0319831681179093556040519116919082907f8be0079c531659141344cd1fd0a4f28419497f9722a3daafe3b4186f6b6457e090600090a35050565b634e487b7160e01b600052604160045260246000fd5b600181811c908216806200014457607f821691505b6020821081036200016557634e487b7160e01b600052602260045260246000fd5b50919050565b601f821115620001b957600081815260208120601f850160051c81016020861015620001945750805b601f850160051c820191505b81811015620001b557828155600101620001a0565b5050505b505050565b81516001600160401b03811115620001da57620001da62000119565b620001f281620001eb84546200012f565b846200016b565b602080601f8311600181146200022a5760008415620002115750858301515b600019600386901b1c1916600185901b178555620001b5565b600085815260208120601f198616915b828110156200025b578886015182559484019460019091019084016200023a565b50858210156200027a5787850151600019600388901b60f8161c191681555b5050505050600190811b01905550565b6123ba806200029a6000396000f3fe60806040526004361061014f5760003560e01c80638da5cb5b116100b6578063b88d4fde1161006f578063b88d4fde146103e6578063c87b56dd14610406578063cb9cf4f614610426578063dd4b18231461043c578063e985e9c514610453578063f2fde38b1461047357600080fd5b80638da5cb5b146102ec5780638da7ad231461030a57806395d89b411461037157806396aca7f414610386578063971fd622146103a6578063a22cb465146103c657600080fd5b80633a4b66f1116101085780633a4b66f11461024c5780633ccfd60b1461025457806342842e0e146102695780636352211e1461028957806370a08231146102a9578063715018a6146102d757600080fd5b806301ffc9a71461015b57806306fdde0314610190578063081812fc146101b2578063095ea7b3146101ea57806323b872dd1461020c578063286fdc531461022c57600080fd5b3661015657005b600080fd5b34801561016757600080fd5b5061017b6101763660046119ca565b610493565b60405190151581526020015b60405180910390f35b34801561019c57600080fd5b506101a56104be565b6040516101879190611a37565b3480156101be57600080fd5b506101d26101cd366004611a4a565b610550565b6040516001600160a01b039091168152602001610187565b3480156101f657600080fd5b5061020a610205366004611a7f565b610579565b005b34801561021857600080fd5b5061020a610227366004611aa9565b610588565b34801561023857600080fd5b5061020a610247366004611a7f565b610618565b61020a610712565b34801561026057600080fd5b5061020a610848565b34801561027557600080fd5b5061020a610284366004611aa9565b61088c565b34801561029557600080fd5b506101d26102a4366004611a4a565b6108ac565b3480156102b557600080fd5b506102c96102c4366004611ae5565b6108b7565b604051908152602001610187565b3480156102e357600080fd5b5061020a6108ff565b3480156102f857600080fd5b506007546001600160a01b03166101d2565b34801561031657600080fd5b5061034f610325366004611ae5565b60086020526000908152604090208054600182015460028301546003909301549192909160ff1684565b6040805194855260208501939093529183015215156060820152608001610187565b34801561037d57600080fd5b506101a5610913565b34801561039257600080fd5b5061020a6103a1366004611bac565b610922565b3480156103b257600080fd5b5061020a6103c1366004611c6a565b6109b3565b3480156103d257600080fd5b5061020a6103e1366004611cb8565b610cf2565b3480156103f257600080fd5b5061020a610401366004611cf4565b610cfd565b34801561041257600080fd5b506101a5610421366004611a4a565b610d14565b34801561043257600080fd5b506102c961138881565b34801561044857600080fd5b506102c96201518081565b34801561045f57600080fd5b5061017b61046e366004611d70565b610e25565b34801561047f57600080fd5b5061020a61048e366004611ae5565b610e53565b60006001600160e01b03198216632483248360e11b14806104b857506104b882610e8e565b92915050565b6060600080546104cd90611da3565b80601f01602080910402602001604051908101604052809291908181526020018280546104f990611da3565b80156105465780601f1061051b57610100808354040283529160200191610546565b820191906000526020600020905b81548152906001019060200180831161052957829003601f168201915b5050505050905090565b600061055b82610ede565b506000828152600460205260409020546001600160a01b03166104b8565b610584828233610f17565b5050565b6001600160a01b0382166105b757604051633250574960e11b8152600060048201526024015b60405180910390fd5b60006105c4838333610f24565b9050836001600160a01b0316816001600160a01b031614610612576040516364283d7b60e01b81526001600160a01b03808616600483015260248201849052821660448201526064016105ae565b50505050565b6001600160a01b038216600090815260086020526040902080546106705760405162461bcd60e51b815260206004820152600f60248201526e4e6f20616374697665207374616b6560881b60448201526064016105ae565b620151808160010154426106849190611df3565b106106c85760405162461bcd60e51b815260206004820152601460248201527314dd185ad9481c195c9a5bd908195e1c1a5c995960621b60448201526064016105ae565b600281018290556040518281526001600160a01b038416907fb764fa86a0c0bf63220359c536a56dc51c46b28e94821b4b165bc99cd6500cc89060200160405180910390a2505050565b33600090815260086020526040902054156107605760405162461bcd60e51b815260206004820152600e60248201526d105b1c9958591e481cdd185ad95960921b60448201526064016105ae565b600034116107bc5760405162461bcd60e51b815260206004820152602360248201527f5374616b6520616d6f756e74206d75737420626520677265617465722074686160448201526206e20360ec1b60648201526084016105ae565b6040805160808101825234808252426020808401918252600084860181815260608601828152338084526008855292889020965187559351600187015551600286015591516003909401805460ff19169415159490941790935592519081527f9e71bc8eea02a63969f509818f2dafb9254532904319f9dbda79b67bd34a5f3d910160405180910390a2565b61085061101d565b6007546040516001600160a01b03909116904780156108fc02916000818181858888f19350505050158015610889573d6000803e3d6000fd5b50565b6108a783838360405180602001604052806000815250610cfd565b505050565b60006104b882610ede565b60006001600160a01b0382166108e3576040516322718ad960e21b8152600060048201526024016105ae565b506001600160a01b031660009081526003602052604090205490565b61090761101d565b610911600061104a565b565b6060600180546104cd90611da3565b61092a61101d565b600954600061093c828787878761109c565b90506109488783611106565b6109528282611120565b6009805490600061096283611e06565b9190505550866001600160a01b03167fddb556c7bd395359905d909094a27257ea68b891c6c2102030d13a46486f9ea0836040516109a291815260200190565b60405180910390a250505050505050565b6001600160a01b03821660009081526008602052604090208054610a0b5760405162461bcd60e51b815260206004820152600f60248201526e4e6f20616374697665207374616b6560881b60448201526064016105ae565b62015180816001015442610a1f9190611df3565b1115610a645760405162461bcd60e51b815260206004820152601460248201527314dd185ad9481c195c9a5bd908195e1c1a5c995960621b60448201526064016105ae565b600381015460ff1615610ab15760405162461bcd60e51b815260206004820152601560248201527414dd185ad948185b1c9958591e4818db185a5b5959605a1b60448201526064016105ae565b611388816002015410610bc35760006009549050610ad58482846002015486611170565b81546040516000916001600160a01b038716918381818185875af1925050503d8060008114610b20576040519150601f19603f3d011682016040523d82523d6000602084013e610b25565b606091505b5050905080610b685760405162461bcd60e51b815260206004820152600f60248201526e151c985b9cd9995c8819985a5b1959608a1b60448201526064016105ae565b60038301805460ff191660011790556040516001600160a01b038616907f4cc0a9c4a99ddc700de1af2c9f916a7cbfdb71f14801ccff94061ad1ef8a804090610bb49085815260200190565b60405180910390a25050610cba565b6000610bd76007546001600160a01b031690565b82546040516001600160a01b039290921691600081818185875af1925050503d8060008114610c22576040519150601f19603f3d011682016040523d82523d6000602084013e610c27565b606091505b5050905080610c785760405162461bcd60e51b815260206004820152601760248201527f466f7266656974207472616e73666572206661696c656400000000000000000060448201526064016105ae565b81546040519081526001600160a01b038516907f0ab19b5769ef7984769b3a944a8b9009f5b7cf96c5061497372b15c9668212f19060200160405180910390a2505b50506001600160a01b03166000908152600860205260408120818155600181018290556002810191909155600301805460ff19169055565b6105843383836111af565b610d08848484610588565b6106128484848461124e565b6060610d1f82610ede565b5060008281526006602052604081208054610d3990611da3565b80601f0160208091040260200160405190810160405280929190818152602001828054610d6590611da3565b8015610db25780601f10610d8757610100808354040283529160200191610db2565b820191906000526020600020905b815481529060010190602001808311610d9557829003601f168201915b505050505090506000610dd060408051602081019091526000815290565b90508051600003610de2575092915050565b815115610e14578082604051602001610dfc929190611e3b565b60405160208183030381529060405292505050919050565b610e1d84611377565b949350505050565b6001600160a01b03918216600090815260056020908152604080832093909416825291909152205460ff1690565b610e5b61101d565b6001600160a01b038116610e8557604051631e4fbdf760e01b8152600060048201526024016105ae565b6108898161104a565b60006001600160e01b031982166380ac58cd60e01b1480610ebf57506001600160e01b03198216635b5e139f60e01b145b806104b857506301ffc9a760e01b6001600160e01b03198316146104b8565b6000818152600260205260408120546001600160a01b0316806104b857604051637e27328960e01b8152600481018490526024016105ae565b6108a783838360016113ec565b6000828152600260205260408120546001600160a01b0390811690831615610f5157610f518184866114f2565b6001600160a01b03811615610f8f57610f6e6000856000806113ec565b6001600160a01b038116600090815260036020526040902080546000190190555b6001600160a01b03851615610fbe576001600160a01b0385166000908152600360205260409020805460010190555b60008481526002602052604080822080546001600160a01b0319166001600160a01b0389811691821790925591518793918516917fddf252ad1be2c89b69c2b068fc378daa952ba7f163c4a11628f55a4df523b3ef91a4949350505050565b6007546001600160a01b031633146109115760405163118cdaa760e01b81523360048201526024016105ae565b600780546001600160a01b038381166001600160a01b0319831681179093556040519116919082907f8be0079c531659141344cd1fd0a4f28419497f9722a3daafe3b4186f6b6457e090600090a35050565b606060006110a987611556565b858786866040516020016110c1959493929190611e6a565b60405160208183030381529060405290506110db816115e9565b6040516020016110eb9190611ff4565b60405160208183030381529060405291505095945050505050565b610584828260405180602001604052806000815250611749565b60008281526006602052604090206111388282612087565b506040518281527ff8e1a15aba9398e019f0b49df1a4fde98ee17ae345cb5f6b5e2c27f5033e8ce79060200160405180910390a15050565b600061117d848484611760565b90506111898585611106565b6111938482611120565b600980549060006111a383611e06565b91905055505050505050565b6001600160a01b0382166111e157604051630b61174360e31b81526001600160a01b03831660048201526024016105ae565b6001600160a01b03838116600081815260056020908152604080832094871680845294825291829020805460ff191686151590811790915591519182527f17307eab39ab6107e8899845ad3d59bd9653f200f220920489ca2b5937696c31910160405180910390a3505050565b6001600160a01b0383163b1561061257604051630a85bd0160e11b81526001600160a01b0384169063150b7a0290611290903390889087908790600401612147565b6020604051808303816000875af19250505080156112cb575060408051601f3d908101601f191682019092526112c891810190612184565b60015b611334573d8080156112f9576040519150601f19603f3d011682016040523d82523d6000602084013e6112fe565b606091505b50805160000361132c57604051633250574960e11b81526001600160a01b03851660048201526024016105ae565b805181602001fd5b6001600160e01b03198116630a85bd0160e11b1461137057604051633250574960e11b81526001600160a01b03851660048201526024016105ae565b5050505050565b606061138282610ede565b50600061139a60408051602081019091526000815290565b905060008151116113ba57604051806020016040528060008152506113e5565b806113c484611556565b6040516020016113d5929190611e3b565b6040516020818303038152906040525b9392505050565b808061140057506001600160a01b03821615155b156114c257600061141084610ede565b90506001600160a01b0383161580159061143c5750826001600160a01b0316816001600160a01b031614155b801561144f575061144d8184610e25565b155b156114785760405163a9fbf51f60e01b81526001600160a01b03841660048201526024016105ae565b81156114c05783856001600160a01b0316826001600160a01b03167f8c5be1e5ebec7d5bd14f71427d1e84f3dd0314c0f7b2291e5b200ac8c7c3b92560405160405180910390a45b505b5050600090815260046020526040902080546001600160a01b0319166001600160a01b0392909216919091179055565b6114fd838383611814565b6108a7576001600160a01b03831661152b57604051637e27328960e01b8152600481018290526024016105ae565b60405163177e802f60e01b81526001600160a01b0383166004820152602481018290526044016105ae565b6060600061156383611877565b600101905060008167ffffffffffffffff81111561158357611583611b00565b6040519080825280601f01601f1916602001820160405280156115ad576020820181803683370190505b5090508181016020015b600019016f181899199a1a9b1b9c1cb0b131b232b360811b600a86061a8153600a85049450846115b757509392505050565b6060815160000361160857505060408051602081019091526000815290565b6000604051806060016040528060408152602001612345604091399050600060038451600261163791906121a1565b61164191906121b4565b61164c9060046121d6565b67ffffffffffffffff81111561166457611664611b00565b6040519080825280601f01601f19166020018201604052801561168e576020820181803683370190505b50905060018201602082018586518701602081018051600082525b82841015611704576003840193508351603f8160121c168701518653600186019550603f81600c1c168701518653600186019550603f8160061c168701518653600186019550603f81168701518653506001850194506116a9565b905250508551600390066001811461172357600281146117365761173e565b603d6001830353603d600283035361173e565b603d60018303535b509195945050505050565b611753838361194f565b6108a7600084848461124e565b6060600061176d85611556565b61177685611556565b6113888610156117a057604051806040016040528060028152602001614e6f60f01b8152506117bd565b6040518060400160405280600381526020016259657360e81b8152505b856040516020016117d194939291906121ed565b60405160208183030381529060405290506117eb816115e9565b6040516020016117fb9190611ff4565b6040516020818303038152906040529150509392505050565b60006001600160a01b03831615801590610e1d5750826001600160a01b0316846001600160a01b0316148061184e575061184e8484610e25565b80610e1d5750506000908152600460205260409020546001600160a01b03908116911614919050565b60008072184f03e93ff9f4daa797ed6e38ed64bf6a1f0160401b83106118b65772184f03e93ff9f4daa797ed6e38ed64bf6a1f0160401b830492506040015b6d04ee2d6d415b85acef810000000083106118e2576d04ee2d6d415b85acef8100000000830492506020015b662386f26fc10000831061190057662386f26fc10000830492506010015b6305f5e1008310611918576305f5e100830492506008015b612710831061192c57612710830492506004015b6064831061193e576064830492506002015b600a83106104b85760010192915050565b6001600160a01b03821661197957604051633250574960e11b8152600060048201526024016105ae565b600061198783836000610f24565b90506001600160a01b038116156108a7576040516339e3563760e11b8152600060048201526024016105ae565b6001600160e01b03198116811461088957600080fd5b6000602082840312156119dc57600080fd5b81356113e5816119b4565b60005b83811015611a025781810151838201526020016119ea565b50506000910152565b60008151808452611a238160208601602086016119e7565b601f01601f19169290920160200192915050565b6020815260006113e56020830184611a0b565b600060208284031215611a5c57600080fd5b5035919050565b80356001600160a01b0381168114611a7a57600080fd5b919050565b60008060408385031215611a9257600080fd5b611a9b83611a63565b946020939093013593505050565b600080600060608486031215611abe57600080fd5b611ac784611a63565b9250611ad560208501611a63565b9150604084013590509250925092565b600060208284031215611af757600080fd5b6113e582611a63565b634e487b7160e01b600052604160045260246000fd5b600067ffffffffffffffff80841115611b3157611b31611b00565b604051601f8501601f19908116603f01168101908282118183101715611b5957611b59611b00565b81604052809350858152868686011115611b7257600080fd5b858560208301376000602087830101525050509392505050565b600082601f830112611b9d57600080fd5b6113e583833560208501611b16565b600080600080600060a08688031215611bc457600080fd5b611bcd86611a63565b9450602086013567ffffffffffffffff80821115611bea57600080fd5b611bf689838a01611b8c565b95506040880135915080821115611c0c57600080fd5b611c1889838a01611b8c565b94506060880135915080821115611c2e57600080fd5b611c3a89838a01611b8c565b93506080880135915080821115611c5057600080fd5b50611c5d88828901611b8c565b9150509295509295909350565b60008060408385031215611c7d57600080fd5b611c8683611a63565b9150602083013567ffffffffffffffff811115611ca257600080fd5b611cae85828601611b8c565b9150509250929050565b60008060408385031215611ccb57600080fd5b611cd483611a63565b915060208301358015158114611ce957600080fd5b809150509250929050565b60008060008060808587031215611d0a57600080fd5b611d1385611a63565b9350611d2160208601611a63565b925060408501359150606085013567ffffffffffffffff811115611d4457600080fd5b8501601f81018713611d5557600080fd5b611d6487823560208401611b16565b91505092959194509250565b60008060408385031215611d8357600080fd5b611d8c83611a63565b9150611d9a60208401611a63565b90509250929050565b600181811c90821680611db757607f821691505b602082108103611dd757634e487b7160e01b600052602260045260246000fd5b50919050565b634e487b7160e01b600052601160045260246000fd5b818103818111156104b8576104b8611ddd565b600060018201611e1857611e18611ddd565b5060010190565b60008151611e318185602086016119e7565b9290920192915050565b60008351611e4d8184602088016119e7565b835190830190611e618183602088016119e7565b01949350505050565b7f7b226e616d65223a20224461696c79204368616c6c656e6765204e4654202300815260008651611ea281601f850160208b016119e7565b61088b60f21b601f9184019182018190526f113232b9b1b934b83a34b7b7111d101160811b60218301528751611edf816031850160208c016119e7565b60319201918201526e2261747472696275746573223a205b60881b60338201527f7b2274726169745f74797065223a20224368616c6c656e67652054797065222c60428201526a10113b30b63ab2911d101160a91b6062820152611fe8611fda611fd4611fbe611fad611fa7611f6a611f5b606d89018e611e1f565b62089f4b60ea1b815260030190565b7f7b2274726169745f74797065223a2022517569726b79204d657373616765222c81526a10113b30b63ab2911d101160a91b6020820152602b0190565b8a611e1f565b64113eae961160d91b815260050190565b691134b6b0b3b2911d101160b11b8152600a0190565b86611e1f565b61227d60f01b815260020190565b98975050505050505050565b7f646174613a6170706c69636174696f6e2f6a736f6e3b6261736536342c00000081526000825161202c81601d8501602087016119e7565b91909101601d0192915050565b601f8211156108a757600081815260208120601f850160051c810160208610156120605750805b601f850160051c820191505b8181101561207f5782815560010161206c565b505050505050565b815167ffffffffffffffff8111156120a1576120a1611b00565b6120b5816120af8454611da3565b84612039565b602080601f8311600181146120ea57600084156120d25750858301515b600019600386901b1c1916600185901b17855561207f565b600085815260208120601f198616915b82811015612119578886015182559484019460019091019084016120fa565b50858210156121375787850151600019600388901b60f8161c191681555b5050505050600190811b01905550565b6001600160a01b038581168252841660208201526040810183905260806060820181905260009061217a90830184611a0b565b9695505050505050565b60006020828403121561219657600080fd5b81516113e5816119b4565b808201808211156104b8576104b8611ddd565b6000826121d157634e487b7160e01b600052601260045260246000fd5b500490565b80820281158282048414176104b8576104b8611ddd565b7f7b226e616d65223a202253746570204368616c6c656e6765204e46542023000081526000855161222581601e850160208a016119e7565b61088b60f21b601e918401918201527f226465736372697074696f6e223a20224461696c792053746570204368616c6c60208083019190915271195b99d9481058da1a595d995b595b9d088b60721b60408301526e2261747472696275746573223a205b60881b60528301527f7b2274726169745f74797065223a20225374657073222c202276616c7565223a606183015261101160f11b60818301528651906122d790829060838501908a016119e7565b62089f4b60ea1b910160838101919091527f7b2274726169745f74797065223a2022476f616c204163686965766564222c20608682015269113b30b63ab2911d101160b11b60a6820152612339611fda611fd4611fbe611fad60b08601611fa7565b97965050505050505056fe4142434445464748494a4b4c4d4e4f505152535455565758595a6162636465666768696a6b6c6d6e6f707172737475767778797a303132333435363738392b2fa2646970667358221220fc7eb9b7f6092197ab3366375ea3f671abf93c19d4cd52f3cb5bbaa998212bcf64736f6c63430008140033",
  "devdoc": {
    "errors": {
      "ERC721IncorrectOwner(address,uint256,address)": [
        {
          "details": "Indicates an error related to the ownership over a particular token. Used in transfers.",
          "params": {
            "owner": "Address of the current owner of a token.",
            "sender": "Address whose tokens are being transferred.",
            "tokenId": "Identifier number of a token."
          }
        }
      ],
      "ERC721InsufficientApproval(address,uint256)": [
        {
          "details": "Indicates a failure with the `operator`s approval. Used in transfers.",
          "params": {
            "operator": "Address that may be allowed to operate on tokens without being their owner.",
            "tokenId": "Identifier number of a token."
          }
        }
      ],
      "ERC721InvalidApprover(address)": [
        {
          "details": "Indicates a failure with the `approver` of a token to be approved. Used in approvals.",
          "params": {
            "approver": "Address initiating an approval operation."
          }
        }
      ],
      "ERC721InvalidOperator(address)": [
        {
          "details": "Indicates a failure with the `operator` to be approved. Used in approvals.",
          "params": {
            "operator": "Address that may be allowed to operate on tokens without being their owner."
          }
        }
      ],
      "ERC721InvalidOwner(address)": [
        {
          "details": "Indicates that an address can't be an owner. For example, `address(0)` is a forbidden owner in EIP-20. Used in balance queries.",
          "params": {
            "owner": "Address of the current owner of a token."
          }
        }
      ],
      "ERC721InvalidReceiver(address)": [
        {
          "details": "Indicates a failure with the token `receiver`. Used in transfers.",
          "params": {
            "receiver": "Address to which tokens are being transferred."
          }
        }
      ],
      "ERC721InvalidSender(address)": [
        {
          "details": "Indicates a failure with the token `sender`. Used in transfers.",
          "params": {
            "sender": "Address whose tokens are being transferred."
          }
        }
      ],
      "ERC721NonexistentToken(uint256)": [
        {
          "details": "Indicates a `tokenId` whose `owner` is the zero address.",
          "params": {
            "tokenId": "Identifier number of a token."
          }
        }
      ],
      "OwnableInvalidOwner(address)": [
        {
          "details": "The owner is not a valid owner account. (eg. `address(0)`)"
        }
      ],
      "OwnableUnauthorizedAccount(address)": [
        {
          "details": "The caller account is not authorized to perform an operation."
        }
      ]
    },
    "events": {
      "Approval(address,address,uint256)": {
        "details": "Emitted when `owner` enables `approved` to manage the `tokenId` token."
      },
      "ApprovalForAll(address,address,bool)": {
        "details": "Emitted when `owner` enables or disables (`approved`) `operator` to manage all of its assets."
      },
      "BatchMetadataUpdate(uint256,uint256)": {
        "details": "This event emits when the metadata of a range of tokens is changed. So that the third-party platforms such as NFT market could timely update the images and related attributes of the NFTs."
      },
      "MetadataUpdate(uint256)": {
        "details": "This event emits when the metadata of a token is changed. So that the third-party platforms such as NFT market could timely update the images and related attributes of the NFT."
      },
      "Transfer(address,address,uint256)": {
        "details": "Emitted when `tokenId` token is transferred from `from` to `to`."
      }
    },
    "kind": "dev",
    "methods": {
      "approve(address,uint256)": {
        "details": "See {IERC721-approve}."
      },
      "balanceOf(address)": {
        "details": "See {IERC721-balanceOf}."
      },
      "getApproved(uint256)": {
        "details": "See {IERC721-getApproved}."
      },
      "isApprovedForAll(address,address)": {
        "details": "See {IERC721-isApprovedForAll}."
      },
      "name()": {
        "details": "See {IERC721Metadata-name}."
      },
      "owner()": {
        "details": "Returns the address of the current owner."
      },
      "ownerOf(uint256)": {
        "details": "See {IERC721-ownerOf}."
      },
      "renounceOwnership()": {
        "details": "Leaves the contract without owner. It will not be possible to call `onlyOwner` functions. Can only be called by the current owner. NOTE: Renouncing ownership will leave the contract without an owner, thereby disabling any functionality that is only available to the owner."
      },
      "safeTransferFrom(address,address,uint256)": {
        "details": "See {IERC721-safeTransferFrom}."
      },
      "safeTransferFrom(address,address,uint256,bytes)": {
        "details": "See {IERC721-safeTransferFrom}."
      },
      "setApprovalForAll(address,bool)": {
        "details": "See {IERC721-setApprovalForAll}."
      },
      "supportsInterface(bytes4)": {
        "details": "See {IERC165-supportsInterface}"
      },
      "symbol()": {
        "details": "See {IERC721Metadata-symbol}."
      },
      "tokenURI(uint256)": {
        "details": "See {IERC721Metadata-tokenURI}."
      },
      "transferFrom(address,address,uint256)": {
        "details": "See {IERC721-transferFrom}."
      },
      "transferOwnership(address)": {
        "details": "Transfers ownership of the contract to a new account (`newOwner`). Can only be called by the current owner."
      }
    },
    "version": 1
  },
  "userdoc": {
    "kind": "user",
    "methods": {},
    "version": 1
  },
  "storageLayout": {
    "storage": [
      {
        "astId": 349,
        "contract": "contracts/Stake&Step.sol:StepStakeDynamicNFT",
        "label": "_name",
        "offset": 0,
        "slot": "0",
        "type": "t_string_storage"
      },
      {
        "astId": 351,
        "contract": "contracts/Stake&Step.sol:StepStakeDynamicNFT",
        "label": "_symbol",
        "offset": 0,
        "slot": "1",
        "type": "t_string_storage"
      },
      {
        "astId": 355,
        "contract": "contracts/Stake&Step.sol:StepStakeDynamicNFT",
        "label": "_owners",
        "offset": 0,
        "slot": "2",
        "type": "t_mapping(t_uint256,t_address)"
      },
      {
        "astId": 359,
        "contract": "contracts/Stake&Step.sol:StepStakeDynamicNFT",
        "label": "_balances",
        "offset": 0,
        "slot": "3",
        "type": "t_mapping(t_address,t_uint256)"
      },
      {
        "astId": 363,
        "contract": "contracts/Stake&Step.sol:StepStakeDynamicNFT",
        "label": "_tokenApprovals",
        "offset": 0,
        "slot": "4",
        "type": "t_mapping(t_uint256,t_address)"
      },
      {
        "astId": 369,
        "contract": "contracts/Stake&Step.sol:StepStakeDynamicNFT",
        "label": "_operatorApprovals",
        "offset": 0,
        "slot": "5",
        "type": "t_mapping(t_address,t_mapping(t_address,t_bool))"
      },
      {
        "astId": 1488,
        "contract": "contracts/Stake&Step.sol:StepStakeDynamicNFT",
        "label": "_tokenURIs",
        "offset": 0,
        "slot": "6",
        "type": "t_mapping(t_uint256,t_string_storage)"
      },
      {
        "astId": 8,
        "contract": "contracts/Stake&Step.sol:StepStakeDynamicNFT",
        "label": "_owner",
        "offset": 0,
        "slot": "7",
        "type": "t_address"
      },
      {
        "astId": 3169,
        "contract": "contracts/Stake&Step.sol:StepStakeDynamicNFT",
        "label": "userStakes",
        "offset": 0,
        "slot": "8",
        "type": "t_mapping(t_address,t_struct(StakeInfo)3164_storage)"
      },
      {
        "astId": 3177,
        "contract": "contracts/Stake&Step.sol:StepStakeDynamicNFT",
        "label": "_tokenIdCounter",
        "offset": 0,
        "slot": "9",
        "type": "t_uint256"
      }
    ],
    "types": {
      "t_address": {
        "encoding": "inplace",
        "label": "address",
        "numberOfBytes": "20"
      },
      "t_bool": {
        "encoding": "inplace",
        "label": "bool",
        "numberOfBytes": "1"
      },
      "t_mapping(t_address,t_bool)": {
        "encoding": "mapping",
        "key": "t_address",
        "label": "mapping(address => bool)",
        "numberOfBytes": "32",
        "value": "t_bool"
      },
      "t_mapping(t_address,t_mapping(t_address,t_bool))": {
        "encoding": "mapping",
        "key": "t_address",
        "label": "mapping(address => mapping(address => bool))",
        "numberOfBytes": "32",
        "value": "t_mapping(t_address,t_bool)"
      },
      "t_mapping(t_address,t_struct(StakeInfo)3164_storage)": {
        "encoding": "mapping",
        "key": "t_address",
        "label": "mapping(address => struct StepStakeDynamicNFT.StakeInfo)",
        "numberOfBytes": "32",
        "value": "t_struct(StakeInfo)3164_storage"
      },
      "t_mapping(t_address,t_uint256)": {
        "encoding": "mapping",
        "key": "t_address",
        "label": "mapping(address => uint256)",
        "numberOfBytes": "32",
        "value": "t_uint256"
      },
      "t_mapping(t_uint256,t_address)": {
        "encoding": "mapping",
        "key": "t_uint256",
        "label": "mapping(uint256 => address)",
        "numberOfBytes": "32",
        "value": "t_address"
      },
      "t_mapping(t_uint256,t_string_storage)": {
        "encoding": "mapping",
        "key": "t_uint256",
        "label": "mapping(uint256 => string)",
        "numberOfBytes": "32",
        "value": "t_string_storage"
      },
      "t_string_storage": {
        "encoding": "bytes",
        "label": "string",
        "numberOfBytes": "32"
      },
      "t_struct(StakeInfo)3164_storage": {
        "encoding": "inplace",
        "label": "struct StepStakeDynamicNFT.StakeInfo",
        "members": [
          {
            "astId": 3157,
            "contract": "contracts/Stake&Step.sol:StepStakeDynamicNFT",
            "label": "amount",
            "offset": 0,
            "slot": "0",
            "type": "t_uint256"
          },
          {
            "astId": 3159,
            "contract": "contracts/Stake&Step.sol:StepStakeDynamicNFT",
            "label": "stakeTimestamp",
            "offset": 0,
            "slot": "1",
            "type": "t_uint256"
          },
          {
            "astId": 3161,
            "contract": "contracts/Stake&Step.sol:StepStakeDynamicNFT",
            "label": "stepCount",
            "offset": 0,
            "slot": "2",
            "type": "t_uint256"
          },
          {
            "astId": 3163,
            "contract": "contracts/Stake&Step.sol:StepStakeDynamicNFT",
            "label": "claimed",
            "offset": 0,
            "slot": "3",
            "type": "t_bool"
          }
        ],
        "numberOfBytes": "128"
      },
      "t_uint256": {
        "encoding": "inplace",
        "label": "uint256",
        "numberOfBytes": "32"
      }
    }
  }
}